{
  "contractName": "Decom",
  "abi": [
    {
      "constant": true,
      "inputs": [
        {
          "name": "",
          "type": "uint256"
        }
      ],
      "name": "productList",
      "outputs": [
        {
          "name": "name",
          "type": "string"
        },
        {
          "name": "price",
          "type": "int256"
        },
        {
          "name": "imageLink",
          "type": "string"
        }
      ],
      "payable": false,
      "stateMutability": "view",
      "type": "function"
    },
    {
      "constant": true,
      "inputs": [
        {
          "name": "",
          "type": "uint256"
        }
      ],
      "name": "sellerList",
      "outputs": [
        {
          "name": "name",
          "type": "string"
        },
        {
          "name": "addr",
          "type": "string"
        },
        {
          "name": "wallet",
          "type": "address"
        }
      ],
      "payable": false,
      "stateMutability": "view",
      "type": "function"
    },
    {
      "inputs": [],
      "payable": false,
      "stateMutability": "nonpayable",
      "type": "constructor"
    },
    {
      "anonymous": false,
      "inputs": [
        {
          "indexed": false,
          "name": "seller_id",
          "type": "uint256"
        },
        {
          "indexed": false,
          "name": "name",
          "type": "string"
        },
        {
          "indexed": false,
          "name": "addr",
          "type": "string"
        },
        {
          "indexed": false,
          "name": "wallet",
          "type": "address"
        }
      ],
      "name": "NewSeller",
      "type": "event"
    }
  ],
  "bytecode": "0x608060405234801561001057600080fd5b50336000806101000a81548173ffffffffffffffffffffffffffffffffffffffff021916908373ffffffffffffffffffffffffffffffffffffffff1602179055506105e9806100606000396000f3fe60806040526004361061004c576000357c0100000000000000000000000000000000000000000000000000000000900463ffffffff168063528c87d214610051578063f42a1b3114610178575b600080fd5b34801561005d57600080fd5b5061008a6004803603602081101561007457600080fd5b81019080803590602001909291905050506102cb565b604051808060200184815260200180602001838103835286818151815260200191508051906020019080838360005b838110156100d45780820151818401526020810190506100b9565b50505050905090810190601f1680156101015780820380516001836020036101000a031916815260200191505b50838103825284818151815260200191508051906020019080838360005b8381101561013a57808201518184015260208101905061011f565b50505050905090810190601f1680156101675780820380516001836020036101000a031916815260200191505b509550505050505060405180910390f35b34801561018457600080fd5b506101b16004803603602081101561019b57600080fd5b8101908080359060200190929190505050610434565b6040518080602001806020018473ffffffffffffffffffffffffffffffffffffffff1673ffffffffffffffffffffffffffffffffffffffff168152602001838103835286818151815260200191508051906020019080838360005b8381101561022757808201518184015260208101905061020c565b50505050905090810190601f1680156102545780820380516001836020036101000a031916815260200191505b50838103825285818151815260200191508051906020019080838360005b8381101561028d578082015181840152602081019050610272565b50505050905090810190601f1680156102ba5780820380516001836020036101000a031916815260200191505b509550505050505060405180910390f35b6004818154811015156102da57fe5b9060005260206000209060030201600091509050806000018054600181600116156101000203166002900480601f0160208091040260200160405190810160405280929190818152602001828054600181600116156101000203166002900480156103865780601f1061035b57610100808354040283529160200191610386565b820191906000526020600020905b81548152906001019060200180831161036957829003601f168201915b505050505090806001015490806002018054600181600116156101000203166002900480601f01602080910402602001604051908101604052809291908181526020018280546001816001161561010002031660029004801561042a5780601f106103ff5761010080835404028352916020019161042a565b820191906000526020600020905b81548152906001019060200180831161040d57829003601f168201915b5050505050905083565b60038181548110151561044357fe5b9060005260206000209060030201600091509050806000018054600181600116156101000203166002900480601f0160208091040260200160405190810160405280929190818152602001828054600181600116156101000203166002900480156104ef5780601f106104c4576101008083540402835291602001916104ef565b820191906000526020600020905b8154815290600101906020018083116104d257829003601f168201915b505050505090806001018054600181600116156101000203166002900480601f01602080910402602001604051908101604052809291908181526020018280546001816001161561010002031660029004801561058d5780601f106105625761010080835404028352916020019161058d565b820191906000526020600020905b81548152906001019060200180831161057057829003601f168201915b5050505050908060020160009054906101000a900473ffffffffffffffffffffffffffffffffffffffff1690508356fea165627a7a72305820524dd64dcbf8c8cf5ccad13ebc174c3f5886ac0ad97ce905599740cd27b0e1bd0029",
  "source": "pragma solidity ^0.5.0;\n\ncontract Decom {\n\n    event NewSeller(uint seller_id, string name, string addr, address wallet);\n\n    address owner;\n    mapping (uint => uint) internal sellerToProduct;\n    mapping (uint => uint) internal buyerToProduct;\n\n    struct Seller {\n        string name;\n        string addr;\n        address wallet; \n    }\n\n    struct Product {\n        string name;\n        int price;\n        string imageLink;\n    }\n\n    Seller[] public sellerList;\n    Product[] public productList; \n\n    constructor() public {\n        owner = msg.sender;\n    }\n\n    function createSeller(string memory _name, string memory _addr, address _wallet) internal {\n\n        uint seller_id = sellerList.push(Seller(_name, _addr, _wallet)) - 1;\n        emit NewSeller(seller_id, _name, _addr, _wallet);\n    }\n\n    function createProduct(string memory _name, int _price, string memory _imageLink) internal {\n        uint product_id = productList.push(Product(_name, _price, _imageLink));\n    }\n\n    // function showSellers() public view returns(Seller[]) {\n    //     return sellerList;\n    // }\n\n    // function showProducts() public view returns(Product[]) {\n    //     return productList;\n    // }\n}",
  "sourcePath": "/Users/godambe/dhruv1584/ethereum/decom/contracts/Decom.sol",
  "compiler": {
    "name": "solc",
    "version": "0.5.0+commit.1d4f565a.Emscripten.clang"
  },
  "schemaVersion": "3.0.1",
  "updatedAt": "2021-04-07T17:54:31.483Z",
  "devdoc": {
    "methods": {}
  },
  "userdoc": {
    "methods": {}
  }
}